:060000000C941D090C9494
:1000060000000C9400000C9400000C9400000C946A
:1000160000000C9400000C9400000C9400000C945A
:1000260000000C9400000C9400000C9400000C944A
:1000360000000C9400000C9400000C94F2140C9434
:1000460000000C9400000C9400000C9400000C942A
:1000560000000C9400000C9400000C9400000C941A
:1000660000000C9400000C9400000C9400000C940A
:1000760000000C94270C0C9400000C94720C0C9449
:1000860000000C940000050720600000000000003E
:10009600005F00000007000700147F147F14242A65
:1000A6007F2A12231308646236495522500005033D
:1000B6000000001C2241000041221C00082A1C2AC4
:1000C6000808083E0808005030000008080808081C
:1000D600003030000020100804023E5149453E0021
:1000E600427F400042615149462141454B31181437
:1000F600127F1027454545393C4A49493001710967
:1001060005033649494936064949291E003636004F
:10011600000056360000000814224114141414146A
:1001260041221408000201510906324979413E7EF6
:100136001111117E7F494949363E414141227F4195
:1001460041221C7F494949417F090901013E41413C
:1001560051327F0808087F00417F41002040413F1F
:10016600017F081422417F404040407F0204027F05
:100176007F0408107F3E4141413E7F090909063E42
:100186004151215E7F0919294646494949310101F4
:100196007F01013F4040403F1F2040201F7F201825
:1001A600207F6314081463030478040361514945EE
:1001B6004300007F4141020408102041417F0000B6
:1001C60004020102044040404040000102040020B5
:1001D600545454787F48444438384444442038447E
:1001E60044487F3854545418087E090102081454B0
:1001F600543C7F0804047800447D40002040443D80
:1002060000007F10284400417F40007C04180478D9
:100216007C0804047838444444387C1414140808D0
:100226001414187C7C080404084854545420043FD1
:100236004440203C4040207C1C2040201C3C403058
:10024600403C44281028440C5050503C4464544CC4
:1002560044000836410000007F00000041360800D7
:1002660002010204027F4141417F000E302B0A0A3F
:100276000A0A0A0A0A0A0A0A0A0A0A0A0A0A090AD9
:100286000A0A0A0A0A0A0A0A0A0A0A0A0A0A0A0AC8
:100296000A0A0A0A0A0A0A0A0A00FCFE03030303F8
:1002A600FEFC00000F1F303030301F0F0000180C0E
:1002B60006FFFF00000000003030303F3F30303096
:1002C60000000C0E030383C37E3C0000383C36332B
:1002D6003130303000000C0EC3C3C3C3FE3C0000F7
:1002E6000C1C303030301F0F0000C0E0B0988C86F8
:1002F600FFFF80000101010101013F3F01007F7FF7
:1003060063636363C38300000C1C303030301F0FFF
:100316000000FCFEC3C3C3C38E0C00000F1F3030A9
:1003260030301F0F000003030303C3F33F0F000029
:100336000000003E3F03000000003CFEC3C3C3C3F1
:10034600FE3C00000F1F303030301F0F00003C7E97
:10035600C3C3C3C3FEFC00000C1C303030301F0F7B
:1003660000000000183C3C180000000000000C1EB5
:100376001E0C00000000000000000000000000004D
:100386000000000000000000000000000000000067
:100396000000000000000000000000000000000057
:1003A6000000000000000000000000000000000047
:1003B6000000000000000000000000000000000037
:1003C6000000000000000000000000000000000027
:1003D6000000000000000000002060E0E0E0E0E037
:1003E6006020000000010301000000FCFE838383FF
:1003F600838383FEFC3F3F0101010101013F3FFF73
:10040600FFC3C3C3C3C3C3FE3C3F3F3030303030AD
:10041600301F0FF8FC0603030303030E0C070F1827
:1004260030303030301C0CFFFF030303030306FC9F
:10043600F83F3F3030303030180F07FFFFC3C3C3DB
:10044600C3C3C3C3033F3F3030303030303030FF9A
:10045600FFC3C3C3C3C30303033F3F000000000041
:10046600000000F8FC06030303838E8C80070F1838
:10047600303030313F1F01FFFFC0C0C0C0C0C0FFD9
:10048600FF3F3F0000000000003F3F00000303FF66
:10049600FF03030000000030303F3F303000000013
:1004A60000000303FFFF0303000C1C3030301F0F56
:1004B600000000FFFFC0E030180C0603013F3F00BC
:1004C6000103060C183020FFFF00000000000000AA
:1004D600003F3F3030303030303030FFFF1C70C0CE
:1004E600C0701CFFFF3F3F0000010100003F3FFFBF
:1004F600FF0E38E0800000FFFF3F3F000000030EC4
:10050600183F3FF8FC060303030306FCF8070F1821
:1005160030303030180F07FFFFC3C3C3C3C3E77EB5
:100526003C3F3F0000000000000000F8FC0603030B
:10053600030306FCF8070F183030343C183F27FF3A
:10054600FFC3C3C3C3E77E3C003F3F0103070E1C46
:100556003830203C7EC3C3C3C3C3C38E0C0C1C30CF
:1005660030303030301F0F03030303FFFF03030354
:1005760003000000003F3F00000000FFFF000000F6
:10058600000000FFFF0F1F3030303030301F0FFFEC
:10059600FF000000000000FFFF03070C18303018B2
:1005A6000C0703FFFF0080E0E08000FFFF3F3F0EE7
:1005B600030000030E3F3F0F1FB0E0C0C0E0B01FB6
:1005C6000F3E3F0301000001033F3E1F3F60C08016
:1005D60080C0603F1F000000003F3F000000000396
:1005E600030383C363331B0F073C3E333130303084
:1005F600303030000005203B0104030404040404E9
:1006060004040404040404040403040404040404A5
:100616000404030404040404040404040404040495
:100626000401040403050404040404040304040587
:1006360004030300000000000000000000000000AA
:1006460000000000000000000000000000000000A4
:100656000000000000000000000000000000000094
:100666000000000000000000000000180601000E57
:1006760011110E121F10191515121115150A0C0A53
:100686001F08171515090E151508011905030A1572
:10069600150A0215150E000A0000100A00040A11B8
:1006A600000A0A0A0A00110A0400011502000000E5
:1006B600001E05051E1F15150A0E11110A1F111120
:1006C6000E1F1515111F0505010E11190A1F040429
:1006D6001F1F08110F011F040A111F10101F02040B
:1006E600021F1F02041F0E11110E1F0505020E1117
:1006F600191E1F050D1212151509011F010F1010E5
:100706000F071818071F0804081F1B04041B031CE7
:1007160003191513070730021C22414141221C1CF4
:100726003E7F7F7F3E1C0A0E3002E0F0180C0C0C58
:100736000C18F0E003070C181818180C0703E0F063
:10074600F8FCFCFCFCF8F0E003070F1F1F1F1F0F4F
:100756000703000530070A09090909090A051205F0
:1007660018001C001E001F10000000000000000002
:10077600100018000000000000100018001C000007
:100786000000100018001C001E0000100018001CBD
:10079600001E001F00000000000000000000000115
:1007A60003070F1F3F7FFF000000000101010A0041
:1007B6000F0001018C098E09920996099A099E0972
:1007C600A209A609AA09AC09AF09B209B509B8096F
:1007D600BB09BE09C109C409C709CA09CD09D0099F
:1007E600D309D609D909DC09DF09E209E509E809CF
:1007F600EB09EE09F109F409F709FA09FD09000AFE
:10080600030A060A090A0B0A0F0A130A170A1B0A21
:100816001F0A230A270A2B0A2F0A330A370A3B0A1A
:10082600400A450A4A0A4F0A540A590A5E0A630AE6
:10083600680A6D0A720A770A7C0A810A860A8B0A96
:10084600AC09AF09B209B509B809BB09BE09C109A6
:10085600C409C709CA09CD09D009D309D609D909D6
:10086600DC09DF09E209E509E809EB09EE09F10906
:10087600F409F709FA09FD09000A030A060A880AB3
:100886008E0A910A940A970A9A0A9D0AA00AA30A4E
:10089600A60AA90AAC0AAF0AB20AB50AB80ABB0A7E
:1008A600BE0AC10AC40AC70ACA0ACD0AD00AD30AAE
:1008B600D60AD90ADC0A8B0AAC09AF09B209B5090E
:1008C600B809BB09BE09C109C409C709CA09CD09C6
:1008D600D009D309D609D909DC09DF09E209E509F6
:1008E600E809EB09EE09F109F409F709FA09FD0926
:1008F600000A030A060A880A8E0A910A940A970AC7
:100906009A0A9D0AA00AA30AA60AA90AAC0AAF0A6D
:10091600B20AB50AB80ABB0ABE0AC10AC40AC70A9D
:10092600CA0ACD0AD00AD30AD60AD90ADC0A8B0A21
:10093600AC09AF09B209B509B809BB09BE09C109B5
:10094600C409C709CA09CD09D009D309D609D909E5
:10095600DC09DF09E209E509E809EB09EE09DF0A26
:10096600AC09AF09B209B509B809E10A01002B388B
:100976003439383337313239343137380034350089
:10098600343500313500000053554E004D4F4E00B2
:1009960054554500574544005448550046524900B1
:1009A6005341540000003031003032003033003003
:1009B60034003035003036003037003038003039FA
:1009C6000031300031310031320031330031340032
:1009D60031350031360031370031380031390032D7
:1009E60030003231003232003233003234003235D8
:1009F60000323600323700323800323900333000E8
:100A060033310000004A414E00464542004D4152F6
:100A160000415052004D4159004A554E004A554C2E
:100A26000041554700534550004F4354004E4F5622
:100A3600004445430032303137003230313800321D
:100A4600303139003230323000323032310032301B
:100A56003232003230323300323032340032303209
:100A660035003230323600323032370032303238EA
:100A76000032303239003230333000323033310018
:100A86003230333200303000333300333400333504
:100A96000033360033370033380033390034300042
:100AA6003431003432003433003434003435003409
:100AB60036003437003438003439003530003531EB
:100AC6000035320035330035340035350035360013
:100AD6003537003538003539000000414C4C00539D
:100AE6005052494E4B4C45004D656E750020003AFC
:100AF600003D004D454E55005365742054696D65A3
:100B060000536574204E6F64650053696D20496E0D
:100B160069740047657420475052530057656273E5
:100B260069746520434D442000434D5449004F4BA2
:100B36000041542B4349504D4F44453D300A0D006A
:100B460041542B434950435347503D312C22696E43
:100B56007465726E6574222C22222C22220A0D00E4
:100B660041542B434950484541443D300A0D00410C
:100B7600542B434950535052543D310A0D004154B1
:100B86002B434950535249503D300A0D0041542BD6
:100B960043495053434F4E540A0D0041542B43438F
:100BA600414C523F0A0D00415445300A0D00415454
:100BB6002B434D47463D310A0D0041542B434E4DC4
:100BC600493D322C312C302C302C300A0D0041544A
:100BD6002B435341530A0D0041542B434D47443D8B
:100BE600310A0D00476F74206E657720534D530A06
:100BF6000041542B434D47523D310A0D0041542BC1
:100C0600434D47463D310D0A0041542B434D475352
:100C16003D222B3834393833373132393431220DCD
:100C26000A003E20006F6E006F666600696E666F92
:100C360000313A20000D323A2000206F6E00206FFE
:100C46006666000D333A20000D343A20000D353A21
:100C5600200041542B43495053544152543D225491
:100C66004350222C226170692E7468696E67737016
:100C760065616B2E636F6D222C38300D00434F4E2D
:100C86004E454354204F4B0041542B434950534546
:100C96004E440D00474554202F6368616E6E656CA7
:100CA600732F3332393430362F6669656C64732F8F
:100CB600312E6A736F6E3F6170695F6B65793D486F
:100CC6005241564A4A54304C515942534A4E412693
:100CD600726573756C74733D3120485454502F31CE
:100CE6002E310D0A00484F53543A207777772E61FC
:100CF60070692E7468696E67737065616B2E636FB9
:100D06006D0D0A00436F6E6E656374696F6E3A20EF
:100D1600636C6F73650D0A0D0A00230041542B4363
:100D26004950534855540D0A00474554202F7570B5
:100D3600646174653F6B65793D003752364E535991
:100D46004648424652554152364B003549303030BE
:100D560057524F584F46533056383500364E484650
:100D6600584830373653433032445A300057554985
:100D760054384C58374E393258384A34570026665C
:100D860069656C64313D00266669656C64323D00B8
:100D9600266669656C64333D00266669656C643455
:100DA6003D004154442B38343938333731323934E5
:100DB600313B0D0A00737461727420676574206D8F
:100DC6006F6E65790A0041542B435553443D312CCF
:100DD600002A3130312300676574206D6F6E6579A6
:100DE60020726573706F6E736500707574206D6F19
:100DF6006E6579206F6E2070686F6E650A002A3105
:100E060030302A00534554204E4F44450040004E92
:100E16004F444520004F6E2F4F6666005365742081
:100E2600486F757200536574205765656B20446181
:100E3600790053746174757300484F5552005745D5
:100E4600454B20444159004D4F4E544800594541A9
:100E560052004D494E555445005345434F4E4400AC
:100E66005345542054494D450053657420446174DC
:100E760065005345542044415445005765656B2031
:100E8600646179004D6F6E74680059656172004D3A
:100E9600696E757465005365636F6E64007465737F
:100EA600740001002D4E414E00494E4600000100DF
:100EB6000200AE070A000400B00710001A0ABA07BB
:100EC60040002A0ACA071A006A0A0A082000840A89
:100ED60024087800A40A440878001C0BBC083000DB
:100EE600940B34090E00C40B64090100D60B720979
:100EF60009000005E50A05000905EE0A02000E05CF
:100F0600B90902001005C80902001205F30A020019
:100F16001405F30A02001605F50A02001805F70A79
:100F260005001A05F90A09001F05FE0A0900280529
:100F3600070B09003105100B09003A05190B0D00C6
:100F46004305220B050050052F0B03005505340BF6
:100F56000F005805370B20006705460B0F00870565
:100F6600660B0F009605750B0F00A505840B0E008A
:100F7600B405930B0C00C205A10B0700CE05AD0B03
:100F86000C00D505B40B1400E105C00B0A00F505ED
:100F9600D40B0C00FF05DE0B0D000B06EA0B0C0054
:100FA6001806F70B0C002406DE0B0C003006030CAB
:100FB60003003C06340B19003F060F0C03005806CD
:100FC600280C03005B062B0C04005E062E0C0500A5
:100FD6006206320C04006706370C03006B062B0C06
:100FE60004006E062E0C050072063B0C0400770604
:100FF600400C05007B06440C05008006490C0400E5
:101006008506400C05008906440C05008E064E0C2C
:1010160004009306400C05009706440C05009C0648
:10102600530C0400A106400C0500A506440C2B0039
:10103600AA06580C0B00D506830C0C00E0068E0C95
:101046000300EC06280C5100EF069A0C1F0040071F
:10105600EB0C16005F070A0D03007507340B020040
:101066007807200D0D007A07220D2B008707580CF4
:101076000B00B207830C0C00BD078E0C0300C907DA
:10108600280C1100CC072F0D1100DD07400D1100B3
:10109600EE07510D1100FF07620D11001008730DC8
:1010A60009002108840D09002A088D0D090033085E
:1010B600960D09003C089F0D0B004508E00C1F002B
:1010C6005008EB0C16006F080A0D03008508340B58
:1010D60013008808A80D11009B08BB0D0B00AC0877
:1010E600CC0D0600B708D70D0300BD080C0C130085
:1010F600C008DD0D1300D308DD0D1400E608F00D61
:101106000B00FA08CC0D06000509040E03000B09B6
:101116000C0C09000E090A0E02001709130E060030
:101126001909150E07001F091B0E09002609220EB4
:101136000D002F092B0E07003C09380E0500430948
:101146003F0E02004809130E02004A09130E090059
:101156004C09440E02005509130E02005709130EDE
:1011660009005909440E02006209130E02006409BF
:10117600130E04006609490E02006A09130E0200E6
:101186006C09130E06006E094D0E02007409130E4B
:1011960002007609130E05007809530E02007D0938
:1011A600130E02007F09130E050081093F0E02008F
:1011B6008609130E02008809130E07008A09580EC5
:1011C60002009109130E02009309130E07009509F8
:1011D6005F0E02009C09130E02009E09130E090001
:1011E600A009660E0900A9096F0E0900B209FE0AD8
:1011F6000900BB09780E0900C409810E0400CD0957
:10120600340E0600D1098A0E0500D709900E090092
:10121600DC09660E0500E509260E0700EA09950EAB
:101226000700F1099C0E0500F809A30E01008010C5
:10123600A80E0000F894EE27ECBBF1E0F5BFE5BF81
:10124600E0936C008DE0A2E0BB27ED938A95E9F769
:1012560080E090E1A0E0B1E0ED930197E9F7E4EBDF
:10126600FEE085919591009761F0A591B591059065
:101276001590BF01F00105900D920197E1F7FB0172
:10128600F0CF8BBFEFEFEDBFE0E1EEBFC0E0D5E002
:101296000C94DC15AA931A9310E01830A0F4E98197
:1012A600E07811F4C69801C0C69A8DE08A95F1F7E8
:1012B600E981EE0FE9830E94AB1DA981EA2BE98340
:1012C600C3981F5FEACF1881229608951A930A934E
:1012D60010E000E0083050F48DE08A95F1F7110F28
:1012E6000E94AB1D1E2BC3980F5FF4CFE12F6AC17E
:1012F600AA93C5980E94B31D41C30E94BB1D0E94BC
:10130600B31D0FC50E94BB1D0E94C21D0E94B31DC6
:1013160008C5AA93C598EA81E062AE2FBBDF0E949A
:10132600C21DA981B7DF0E94CE1D11C00E94D31D28
:10133600C598E981EA93A981E5DFF3C40E94D31D2C
:10134600C598EA81EA93EA81EA93AA81E2DF2396C5
:101356000895C49A88E795E00197F1F7C498C59A6D
:10136600C39888EC90E00197F1F70E94DB1DA1EE8F
:10137600BFDFE0E0EA93AFE1C0DFA2E0B0E00E94A9
:101386009F21E5E0EA93A2E0B8DFE6E0EA93A7E072
:10139600B4DFEDE1EA93A4E0B0DF0895E0E0EA937C
:1013A600AFE1ABDFC49A84E091E00197F1F70895CD
:1013B6000E94DB1DECE1EA93AFE09FDFE2E0EA93F7
:1013C600AFE09BDFEAE0EA93A091DA0BAFDFEBE058
:1013D600EA93A091DB0BAADFECE0EA93E091DC0B49
:1013E600EA93A091DB0BAADFEDE0EA93E091DD0B37
:1013F600EA93A091DB0BA2DF0895C4980E94CE1D4C
:10140600C598A1E647DF8BE18A95F1F75FDFF0E04B
:10141600E093DE0BF093DF0B59DFA0EEBBE00E94FA
:10142600E31DA2EEBBE00E94E31DA4EEBBE00E941A
:10143600E31DA6EEBBE00E94E31DA8EEBBE0F0E0D4
:10144600ED93FC93C59AC49A0E94DB1D08950E94F1
:101456006A17E0E0EA93A0E00E94311B0E94E81DB3
:1014660008950E94EF1DF3DF0E94F41DA0E30E9481
:101476005F1C0E94F41DABE00E945F1CE0E0EA9353
:10148600E5E2EA93EAE1EA93A0E30E945F1C0E9488
:10149600E81DE2E1EA93E2E0EA93A0E0B5E00E940B
:1014A600EA1AE2E0EA93E7E2EA93A9E0B5E00E94ED
:1014B600EA1A0E94FA1D0630E0E01E072CF40E948C
:1014C600051E0F5F1F4FF7CFE8E5F7E00E941A1ED3
:1014D600772039F0E8E4EA93E3E0EA93AEE0B5E09A
:1014E60006C0E8E4EA93E3E0EA93A0E1B5E00E94EF
:1014F600EA1A68C00E94EF1D0E941F1EE6E0F0E097
:10150600FA93EA93EDE0F0E0FA93EA93ECE0F0E088
:10151600FA93EA93A6EDBBE00E9457160E942B1E93
:10152600EBE0EA93EDE0EA93E091D70BA4E9BBE0A8
:101536000E942E1EECE2EA93EDE0EA93E091D80BCE
:10154600ACE1BBE00E942E1EEAEFF5E00E941A1EF7
:10155600E2E4EA93EDE0EA93E091D90BA4EABAE07B
:101566000E942E1EE2E4EA93E6E1EA93E62DAAE162
:10157600BAE00E942E1EE2E0EA93EEE1EA93EC2D39
:10158600AAE6BAE00E942E1EA2E1B5E00E94FE1A6B
:10159600ED2DAAE2BAE00E94381EA4E1B5E00E9451
:1015A600FE1AE091D60BA4E8BAE00E94381E0E940B
:1015B600FA1D0630E0E01E072CF40E94051E0F5FA0
:1015C6001F4FF7CF099119910895552049F00E94B0
:1015D6002B1EE1E2EA93EDE0EA93A6E1B5E008C04E
:1015E6000E942B1EE1E2EA93EDE0EA93A8E1B5E062
:1015F6000E94EA1AE52D0E94CC215E2E0895BA9328
:10160600AA932E970E94EF1D0E94421EAEE0B0E004
:101616000E94931CA889B989EC91E03079F00E9468
:10162600491EA889B989EC91D001EC930F5F1F4F31
:10163600E889F9893196E88BF98BECCF8A92EB89A8
:10164600EA93DE0114960E94EA1A19810881B9C04C
:101656000E94501EE130A0E0FA0719F40E94A2137E
:1016660060C3E230A0E0FA0711F4FFD45AC3E330B6
:10167600A0E0FA0709F455C3E430A0E0FA0711F434
:10168600A2D04FC34EC30E94501E309731F4E82DAE
:10169600E750EA93EA2DE85009C0E82DE750EA93AF
:1016A600E981E150EE0FEE0FEE0FE15FEA93A0E263
:1016B6000E94E11A0E94551E34C30E945C1EC7DEBA
:1016C600AAE1B5E00E94611EAFE1B5E00E94681E86
:1016D600A8E2B5E00E946F1EA1E3B5E00E94761E67
:1016E600AAE3B5E08CDF21E030E0CB9905C0CB9BC7
:1016F600FECFD901ADDF14C0CC9909C0CC9BFECF7B
:101706000E947D1E14F00E94861E0E948E1ECD9998
:1017160006C0CD9BFECFA5DEE1E04E2E02C0E5CF92
:10172600CECF0E947E2224960895BA93AA932E972E
:101736000E945C1E0E94941EAEE0B0E00E94931CC4
:10174600AA89BB89EC91E03079F00E949B1EAA8998
:10175600BB89EC91D001EC930F5F1F4FEA89FB899F
:101766003196EA8BFB8BECCFF801A6E0B0E00E9445
:10177600DF21A4E5B0E0AE1BBF0BE2E0F0E00E9483
:10178600F7219F012A93E2E0EA93DE0116960E9472
:10179600EA1AE0E0EA93EAE0EA93E4E5EA93AAE0EB
:1017A6000E943E1B0E94F41DA0E30E945F1CEFE016
:1017B600F0E05F01EAE0F0E04F010E94551E0E9452
:1017C6007E226496089543DEA3E4B5E0AEDF0E9470
:1017D600A21ECD9903C0CD9BFECF0895FACFAA8154
:1017E600BB81A634E0E0BE0724F4A885B9855497EA
:1017F6000CF028C0E881F981E130A0E0FA0719F47D
:101806000E94A91E1BC0E230A0E0FA0719F40E944C
:10181600B21E14C0E330A0E0FA0719F40E94BB1E02
:101826000DC0E430A0E0FA0719F40E94C41E06C0F9
:10183600E530A0E0FA0731F40E94CD1EECE3F0E0BB
:101846000E944F222C9608950E94D61E1A930A9340
:1018560010919B0000919C00E12FEC71E9F4E0915E
:10186600400EEF5FE093400EE150F0E0E050F24FA3
:101876000083A091400EA03419F4E0E0E093400EFE
:10188600A091420EAF5FA093420EA03429F4E0E08F
:10189600E093420E689420F8E0910A0CF0910B0C4C
:1018A600E45FF34F0083A0E5B5E0FBD0E03009F03C
:1018B6007AD1A0910A0CB0910B0CA43FE1E0BE07CF
:1018C60029F4E0E0E0930A0CE0930B0CAAE0BCE0FC
:1018D6000E94E41E099119910E94EA1E1895AA9386
:1018E600EA93FA93EFB7EA93E091850EE030B1F010
:1018F600E150E093850EE091840EEF5FE093840E55
:10190600E150F0E0ED5BF14FE081E0939C00A091A7
:10191600840EA03419F4E0E0E093840EE991EFBF61
:10192600F991E991A9911895AA93A091850EA034F1
:10193600E1F3F894E091850EE03021F4E0919B000C
:10194600E072C1F4E091830EEF5FE093830EE15005
:10195600F0E0ED5BF14FA881A083A091830EA03447
:1019660019F4E0E0E093830EE091850EEF5FE093DB
:10197600850E03C0E881E0939C0078942196089533
:10198600BA93AA93A881B981EC91E03061F0AC9149
:10199600CBDFA2E3B0E00E949F21E881F981319676
:1019A600E883F983EFCFBDC1BA93AA93E2970E9469
:1019B600EF1D0E94421EA2E3B0E00E94931CA8AD58
:1019C600B9ADEC91E03079F00E94491EA8ADB9ADF1
:1019D600EC91D001EC93E8ADF9AD3196E8AFF9AFF3
:1019E6000F5F1F4FECCF00E010E0ECA9FDA90E172A
:1019F6001F077CF4DE011296C3DFE5E5F5E0FA93F6
:101A0600EA93A8ADB9AD0AD0E03021F40F5F1F4FBD
:101A1600ECCF772419810881EA960895BA93AA93A0
:101A260064970E945C1E2091D20B3091D30B0E94CA
:101A3600941EA4E1B0E00E94931CAA8DBB8DEC918C
:101A4600E03079F00E949B1EAA8DBB8DEC91D001EF
:101A5600EC93EA8DFB8D3196EA8FFB8F0F5F1F4F5C
:101A6600ECCFF9010E94F81E0E94C2210E94A92112
:101A7600E88DF98D0E94C2210E94702268F4ECE084
:101A8600FCE0FA93EA93DE0116960E94C11C309799
:101A960011F0E1E002C0E5CFE0E00E947E226C9604
:101AA6000895BA93AA9324970E94EF1D0E94421E9E
:101AB600A4E0B0E00E94931CAE81BF81EC91E030BF
:101AC60049F00E94491EAE81BF810E94011F0F5F2F
:101AD6001F4FF2CF00E010E00430E0E01E07CCF428
:101AE600E3E0F0E0E01BF10BDE011296AE0FBF1F44
:101AF600AC91E0910A0CF0910B0CE01BF10BE45F4A
:101B0600F34FE081EA1711F0E0E004C00F5F1F4FCA
:101B1600E3CFE1E01981088128960895ECE0FCE026
:101B26000E940A1FA4EFB1E00E94931CE0E0E0933C
:101B36000A0CE0930B0C0895E8E5F5E00E940F1FF0
:101B4600E7E6F5E00E940F1FE7E8F5E00E940F1FA9
:101B5600E6E9F5E00E940F1FE5EAF5E00E940F1F97
:101B6600E4EBF5E016C0E2ECF5E00E940F1FEEECA8
:101B7600F5E00E940F1FE5EDF5E00E940F1FE1EE74
:101B8600F5E00E940F1FE5EFF5E00E940F1FEFEF53
:101B9600F5E0FA93EA93E2E3F0E0FA93EA93A5E03C
:101BA600B0E002DF08956997E3E0E883E0E0E983C7
:101BB6000E94752200E010E020E030E040E050E0B6
:101BC600FE0175960E940A1F0E94191FA7DF442472
:101BD6000E94E81D0E946A17E0E0EA93EA93ABE0F0
:101BE600B6E00E94EA1AE8E1F6E00E940F1FE4E27E
:101BF600F6E00E940F1F00E010E00E941D1FEC910E
:101C0600E03009F44DC00E941D1FAC91A23229F4A8
:101C16004F5F5F4F20E030E040C0E3E0F0E0E417C4
:101C2600F50769F4F9012F5F3F4FDE011896EA0FB9
:101C3600FB1F0F010E941D1FEC91D001EC930E9427
:101C46001D1FAC91AA3249F520E030E0F80131972A
:101C5600E45FF34FA081A332E1F0F9012F5F3F4F1C
:101C6600DE015596AE0FBF1FF8010F5F1F4FE45FF1
:101C7600F34FE081EC930E941D1FAC91AD3031F41F
:101C8600F801E35FF34FA081AA3009F001C001C05B
:101C9600DDCFDE01559647D003C00F5F1F4FADCF96
:101CA600E0E0EA93EAE0EA93DE0157960E94EA1A38
:101CB600E0E0EA93E4E1EA93DE011A960E94EA1A6A
:101CC6002DDFFE0175960E940A1F0E94191F0E94B1
:101CD6007C226F960895BA93AA93E0E3F6E00E94F9
:101CE6000F1FECE3F6E0FA93EA93A0EDB7E096DE79
:101CF600AFE3B6E045DEE8E5F6E0FA93EA93A8E856
:101D0600B3E18CDEA881B981EC91E03041F0AC9171
:101D16000BDEE881F9813196E883F983F3CFAAE1F6
:101D260003DE22960895BA93AA93EF97EF97AC979E
:101D36000E94EF1D0E94421E0E94191FFE013C9642
:101D46000E940A1FA0EAB0E00E94931C0E94221F74
:101D5600E03091F0F801DE011296EA0FFB1FBF0199
:101D66000E94221FDB01EC93DE01A455BF4F0E94A7
:101D7600E41E0F5F1F4FEACF0E942A1FABE5B6E0B5
:101D86000E94C11C309729F0E0E0EA93DE01139629
:101D96007ED00E942A1FAEE5B6E00E94C11C309795
:101DA60029F0E1E0EA93DE01139671D00E942A1F22
:101DB600A2E6B6E00E94C11C309709F462C00E94F8
:101DC6002F1FA7E6B6E00E94A31C949905C00E94A7
:101DD6002F1FABE6B6E004C00E942F1FAEE6B6E0AA
:101DE6000E94A31C0E942F1FA2E7B6E00E94A31C1C
:101DF600979905C00E942F1FA7E7B6E004C00E946E
:101E06002F1FABE7B6E00E94A31C0E942F1FA0E87D
:101E1600B6E00E94A31CAF9905C00E942F1FA5E83B
:101E2600B6E004C00E942F1FA9E8B6E00E94A31CDA
:101E36000E942F1FAEE8B6E00E94A31CDF9905C0E2
:101E46000E942F1FA3E9B6E004C00E942F1FA7E936
:101E5600B6E00E94A31C0E942F1FACE9B6E00E94C8
:101E6600A31CDA9905C00E942F1FA1EAB6E004C0A0
:101E76000E942F1FA5EAB6E00E94A31CDE011C9655
:101E86002ADF19810881EF96EF96E0960895BA93B6
:101E9600AA936297E0E0E883E983EA83EB830E94F2
:101EA600752201E010E0A801FE013E960E940A1F7D
:101EB6000E94191FFE013A960E940A1F0E94191FCE
:101EC600A88DB98DEC91E03091F00E94341FEA0F95
:101ED600FB1F0F01A88DB98DEC91D001EC93E88D15
:101EE600F98D3196E88FF98F0E94391FE9CFE1E02D
:101EF600F0E0E887F9870E94341FAE0FBF1FAC9150
:101F0600A33209F1E885F9853197DE011E96AE0FF9
:101F1600BF1FAC91AE3639F0DE011E96AE0FBF1F65
:101F2600AC91A63669F4EE81FF81DE011A96EA0FBE
:101F3600FB1F0F010E94341FAE0FBF1F0E94011F1F
:101F46000E94391FD8CFDE011A960E94D81CAF0115
:101F5600042E052A09F4A8013F85E32FF0E0E133BA
:101F6600A0E0FA0781F4EA8DE03011F4949801C0FC
:101F7600949AAAE2B0E0EA8D0E94572262E570E0E8
:101F86000E943F1F6AC0E233A0E0FA0781F4EA8D9F
:101F9600E03011F4979801C0979AA4E5B0E0EA8D75
:101FA6000E9457226CE770E00E943F1F56C0E33341
:101FB600A0E0FA0781F4EA8DE03011F4AF9801C091
:101FC600AF9AAEE7B0E0EA8D0E94572266EA70E06B
:101FD6000E943F1F42C0E433A0E0FA0781F4EA8D75
:101FE600E03011F4DF9801C0DF9AA8EAB0E0EA8D8C
:101FF6000E94572260ED70E00E943F1F2EC0EA8DBE
:10200600E03011F4949801C0949AEA8DE03011F40E
:10201600979801C0979AEA8DE03011F4AF9801C005
:10202600AF9AEA8DE03011F4DF9801C0DF9AE1E063
:10203600F0E0E887F987A885B985159774F4A8852F
:10204600B985EAE20E94D921E050F040DF01EA8D2D
:102056000E9457220E94391FEECF0E947C226B9667
:102066000895A8E8B8E08CDC08951A930A930E94B4
:10207600481FAEE0B9E00E944C1F0E94511FAAE221
:10208600B0E00E94561F0E945C1F0E94E81D0E943D
:10209600A21ECB9931C0CB9BFECFE6E0F0E0E01765
:1020A600F10739F5949B02C0949801C0949A979BC6
:1020B60002C0979801C0979AAF9B02C0AF9801C023
:1020C600AF9ADF9B02C0DF9801C0DF9ADA9B02C09D
:1020D600DA9801C0DA9A01E010E00630E0E01E0767
:1020E6003CF40E946C1F0E94741F0F5F1F4FF5CFB8
:1020F60002C0D80125D023C0CC991BC0CC9BFECFF3
:10210600E6E0F0E0E017F10719F401E010E002C0A4
:102116000F5F1F4F0E947E1F0E94511F0E946C1F5F
:10212600DF010E94561F0E945C1FA7E1B9E00E94D2
:10213600811FCD9903C0CD9BFECFFEC2AACF97CFFC
:10214600BA93AA932A970E945C1E0E94941E0E942C
:10215600191FFE013496FA93EA93A9E1B9E00E94A9
:10216600B41CEE85E05DEA870E942A0ADE01149619
:102176000E94611EAFE1B9E00E94681EA6E2B9E0C6
:102186000E946F1EAFE2B9E00E94761EACE3B9E092
:1021960036DA21E030E0CB9908C0CB9BFECF3A93EC
:1021A6002A93A889B98917D011C0CC9909C0CC9BAC
:1021B600FECF0E947D1E14F00E94861E0E948E1E77
:1021C600CD9903C0CD9BFECF02C0E5CFCDCF0E94F7
:1021D6007E2260960895BA93AA93EA81FB81E13044
:1021E600A0E0FA0709F058C0E881F981E130A0E0E3
:1021F600FA0761F4949B02C0949801C0949A0E94D5
:10220600841FF0E0F096AAE2B0E03FC0E230A0E022
:10221600FA0761F4979B02C0979801C0979A0E94AB
:102226008B1FF0E0F096A4E5B0E02FC0E330A0E00D
:10223600FA0761F4AF9B02C0AF9801C0AF9A0E9443
:10224600921FF0E0F096AEE7B0E01FC0E430A0E0E9
:10225600FA0761F4DF9B02C0DF9801C0DF9A0E9493
:10226600991FF0E0F096A8EAB0E00FC0E530A0E0D4
:10227600FA0789F4DA9B02C0DA9801C0DA9A0E945A
:10228600A01FF0E0F096A2EDB0E0EF2BE1E009F43C
:10229600E0E00E9457220FC0E230A0E0FA0721F4E6
:1022A600A881B98109D007C0E330A0E0FA0719F484
:1022B600A881B98152D0AAC0BA93AA931A930A9355
:1022C6000E94A71FA3E4B9E00E944C1F0E94511F61
:1022D6000E94AB1F0E94B31F0E942B1E0E94BA1FB2
:1022E600A8E4B9E00E94811F0E94A21ECB9911C0EA
:1022F600CB9BFECFAA81BB81EAE20E94D921EF5F88
:10230600FF4F0E94CA1F0E94511F0E94AB1F0E94CE
:10231600D81FCC991CC0CC9BFECFE7E1F0E0E017BC
:10232600F10719F400E010E002C00F5F1F4F0E9492
:102336007E1F0E94511F0E94AB1F0E94D81F0E9441
:102346002B1E0E94BA1FAAE4B9E00E94811FCD99F4
:1023560003C0CD9BFECF58C0C9CFBA93AA931A9398
:102366000A930E94481FACE4B9E00E944C1F0E94E9
:10237600511F0E94DB1FE65EFF4F0E94B31F0E94A3
:102386002B1E0E94E11FA5E5B9E00E94811F0E9455
:10239600A21ECB9913C0CB9BFECFAA81BB81EAE2DA
:1023A6000E94D921E75EFF4F0E94CA1F0E94511F5B
:1023B6000E94DB1FE75EFF4F0E94D81FCC991EC00C
:1023C600CC9BFECFE7E0F0E0E017F10719F401E05F
:1023D60010E002C00F5F1F4F0E947E1F0E94511F18
:1023E6000E94DB1FE75EFF4F0E94D81F0E942B1E34
:1023F6000E94E11FA7E5B9E00E94811FCD9903C0A5
:10240600CD9BFECF01C0C5CF1981088124960895C2
:10241600EAE2F0E00F010E94841F0E94F11FE4E54A
:10242600F0E00F010E948B1F0E94F11FEEE7F0E023
:102436000F010E94921F0E94F11FE8EAF0E00F01CF
:102446000E94991F0E94F11FE2EDF0E00F010E9429
:10245600A01F0E94F11F08951A930A930E94481F15
:10246600A9E5B9E00E94F61F0E94E11FA2E6B9E0C5
:102476000E94811F0E94A21ECB9904C0CB9BFECF57
:10248600F8015AC1CC9914C0CC9BFECFE7E0F0E02E
:10249600E017F10719F401E010E002C00F5F1F4FCB
:1024A6000E942B1E0E94E11FA4E6B9E00E94811F34
:1024B600CD9905C0CD9BFECFE62DF0E03DC1DCCF2A
:1024C6001A930A930E94481FA6E6B9E00E94F61FD7
:1024D6000E94F91FAAE6B9E00E94811F0E94A21E6F
:1024E600CB9904C0CB9BFECFF80126C1CC9914C072
:1024F600CC9BFECFEFE1F0E0E017F10719F401E025
:1025060010E002C00F5F1F4F0E942B1E0E94F91F92
:10251600ACE6B9E00E94811FCD9905C0CD9BFECFE8
:10252600ED2DF0E009C1DCCF1A930A930E94481FF3
:10253600AEE6B9E00E94F61F0E940920A4E7B9E0C2
:102546000E94811F0E94A21ECB9904C0CB9BFECF86
:10255600F801F2C0CC9914C0CC9BFECFECE0F0E0C1
:10256600E017F10719F401E010E002C00F5F1F4FFA
:102576000E942B1E0E940920A6E7B9E00E94811F37
:10258600CD9905C0CD9BFECFEC2DF0E0D5C0DCCFBC
:102596001A930A930E94A71FA8E7B9E00E94F61FA4
:1025A6000E941920ADE7B9E00E94811F0E94A21E79
:1025B600CB9904C0CB9BFECFF801BEC0CC9914C00A
:1025C600CC9BFECFEFE0F0E0E017F10719F400E056
:1025D60010E002C00F5F1F4F0E942B1E0E941920A1
:1025E600AFE7B9E00E94811FCD9906C0CD9BFECF13
:1025F600E091D60BF0E0A0C0DBCF1A930A930E94BD
:10260600A71FA1E8B9E00E94F61F0E94BA1FA6E81C
:10261600B9E00E94811F0E94A21ECB9904C0CB9BE9
:10262600FECFF80189C0CC9914C0CC9BFECFE7E160
:10263600F0E0E017F10719F400E010E002C00F5FC8
:102646001F4F0E942B1E0E94BA1FA8E8B9E00E94E5
:10265600811FCD9906C0CD9BFECFE091D70BF0E050
:102666006BC0DBCF1A930A930E94A71FAAE8B9E0B2
:102676000E94F61F0E942920A1E9B9E00E94811F4D
:102686000E94A21ECB9904C0CB9BFECFF80154C07A
:10269600CC9914C0CC9BFECFEBE3F0E0E017F1073A
:1026A60019F400E010E002C00F5F1F4F0E942B1EBE
:1026B6000E942920A3E9B9E00E94811FCD9906C096
:1026C600CD9BFECFE091D80BF0E036C0DBCF1A935E
:1026D6000A930E94A71FA5E9B9E00E94F61F0E946F
:1026E6003920ACE9B9E00E94811F0E94A21ECB9955
:1026F60004C0CB9BFECFF8011FC0CC9914C0CC9B65
:10270600FECFEBE3F0E0E017F10719F400E010E08C
:1027160002C00F5F1F4F0E942B1E0E943920AEE998
:10272600B9E00E94811FCD9906C0CD9BFECFE091F6
:10273600D90BF0E001C0DBCF0991199108950E94F1
:102746005C1E0E944920A0EAB9E00E94611EA9EA27
:10275600B9E00E94681EA2EBB9E00E94020BCB9979
:1027660005C0CB9BFECFD9018DD01EC0CC9914C01D
:10277600CC9BFECF2F5F3F4FF50138965F0123308C
:10278600E0E03E073CF002E010E021E030E0EFE060
:10279600F0E05F010E948E1ECD9905C0CD9BFECF55
:1027A6000E947E22ABC2DBCFCCCF0E945C1E0E9471
:1027B6004920ABEBB9E00E94611EA4ECB9E00E948F
:1027C600681EADECB9E00E946F1EA1EDB9E00E9453
:1027D600761EA7EDB9E00E94020BCB9905C0CB9BF4
:1027E600FECFD90161D013C0CC9909C0CC9BFECFD6
:1027F6000E947D1E14F00E94861E0E948E1ECD9998
:1028060005C0CD9BFECF0E947E2278C2E6CFCFCFF9
:102816000E945C1E0E944920ACEDB9E00E94611E38
:10282600A5EEB9E00E94681EAAEEB9E00E946F1EEE
:10283600A1EFB9E00E94020BCB9905C0CB9BFECF5E
:10284600D9015CD01EC0CC9914C0CC9BFECF2F5FA3
:102856003F4FF50138965F012430E0E03E073CF03B
:1028660003E010E021E030E0EFE0F0E05F010E94DD
:102876008E1ECD9905C0CD9BFECF0E947E223EC204
:10288600DBCFC8CF0E94501EE130A0E0FA0719F452
:102896008CDF0C94D516E230A0E0FA0719F4B8DF05
:1028A6000C94D5160C94D5160E94501EE130A0E06B
:1028B600FA0731F4D1DD6E2E0E944D200C94D51608
:1028C600E230A0E0FA0731F4FBDDDE2E0E944D2057
:1028D6000C94D516E330A0E0FA0729F425DECE2EB7
:1028E6000E944D205FC2E430A0E0FA0731F450DECA
:1028F600E093D60B0E944D2055C254C20E94501E32
:10290600E130A0E0FA0731F478DEE093D70B0E94BD
:10291600542048C2E230A0E0FA0731F4A3DEE09387
:10292600D80B0E9454203EC2E330A0E0FA0731F4EF
:10293600CEDEE093D90B0E94542034C233C22897CE
:10294600E4ECEABBECEFEBBBE8E7E7BBECEFE8BB9C
:10295600E0ECE4BBE0E8E5BBE0E9E1BBE2BBE0E0DC
:10296600E2B9E3B9E0936100E0936200E0936400AA
:10297600E0936500E0BFE7E0E3BFE4E6E2BFE0E046
:10298600E1BFE1E0E7BFE0E0E0937D00E0939B007C
:10299600E8EDE0939A00E6E0E0939D00E0E0E09346
:1029A6009800E3E3E09399000E944E21E3E0EA9366
:1029B600E1E0EA93A0E03AD1ECE8F0E0E883F983BD
:1029C600EE81EC7FE160EE83E37EEC60EE83EF81E7
:1029D600E078E763EF83DE01F1D178947EC10E944F
:1029E600D61E0E9477221091D90B20E030E0E4E653
:1029F600E2BFE091D20BF091D30B6091D40B7091B2
:102A0600D50BEC5EFF4F6F4F7F4FE093D20BF093E9
:102A1600D30B6093D40B7093D50B0E94F81EA13094
:102A2600E8E2BE07EBE68E07EEEE9E0710F00E9488
:102A36005E200E94F81EE8EEF3E060E070E00E947F
:102A460021220E94682209F04EC021E030E02630A3
:102A5600E0E03E070CF047C00E94682031970E94D4
:102A66004F220E9468203097D9F5F901E130A0E0A5
:102A7600FA0731F4949B02C0949801C0949A27C037
:102A8600E230A0E0FA0731F4979B02C0979801C0A4
:102A9600979A1DC0E330A0E0FA0731F4AF9B02C05D
:102AA600AF9801C0AF9A13C0E430A0E0FA0731F442
:102AB600DF9B02C0DF9801C0DF9A09C0E530A0E0C5
:102AC600FA0729F4DA9B02C0DA9801C0DA9AAAE278
:102AD600A29FF001A39FF00DE050F0400E94741FEA
:102AE6002F5F3F4FB4CF4420B9F00E941F1EA09124
:102AF600D90B1A1711F00E947D0A1091D90B0E946A
:102B0600F81EE4EFF1E060E070E00E9421220E94EE
:102B1600682211F40E94E80A21E030E02630E0E065
:102B26003E070CF040C0AAE2A29FF001A39FF00D61
:102B3600EF5FFF4FDF01E091D70BF0E0AE0FBF1F55
:102B46000E944322E13021F4A091D80BA03009F075
:102B560027C0F901E130A0E0FA0719F40E94A91E86
:102B66001BC0E230A0E0FA0719F40E94B21E14C09E
:102B7600E330A0E0FA0719F40E94BB1E0DC0E43052
:102B8600A0E0FA0719F40E94C41E06C0E530A0E0D2
:102B9600FA0731F40E94CD1EECE3F0E00E944F22CA
:102BA6002F5F3F4FBBCF0E947E2224960E94EA1ED3
:102BB6001895C5DE8CD10E945E200E94340AE1E0A1
:102BC6004E2E0E94B60D0E949F0DE1EAE093DA0BAD
:102BD600E2EAE093DB0BE3EAE093DC0BE4EAE09362
:102BE600DD0B0E94AC090E94D1090E94DB09B7994E
:102BF60009C00E94000AEEEDFBE0ACE00E9437221D
:102C06000E94F20BCD9905C0CD9BFECF44240E94B5
:102C1600600BCC9904C0A8EFB9E00E946E0ECB9968
:102C260003C0CB9BFECF1DDAE2CFFFCFAA93EA818A
:102C3600E370EA83E981E03019F0EA81E061EA8332
:102C4600E881E03019F0EA81E068EA830E947320A7
:102C5600A7E00E948721AA810E94782088C0BA93A3
:102C6600AA930E947320A0E00E9478200E947C20F4
:102C76000E9484200E948B200E949120AE2F0E94E9
:102C86000F1DAC81BD81EC930E9462219BC1AA936A
:102C96000E947320A0E00E9497200E949E200E941E
:102CA600A5200E94782063C0BA93AA930E9473203D
:102CB600A3E00E9478200E947C20AE81BF81EC9325
:102CC6000E948B20AC81BD81EC930E948B200E94D8
:102CD60091200E9484200E94622128960895AA933A
:102CE6000E947320A3E00E948721AB810E94A52049
:102CF6000E949E200E9497200E9478202496089584
:102D06000895AA931A93AA9818E0FADFE981E07861
:102D160011F0AC9A01C0AC98E981EE0FE983F0DFBF
:102D2600AD9AEEDFAD98115081F7AA9A18813AC094
:102D3600AA93AB98A881E5DFC8C0AA93AB9AA881ED
:102D4600E0DFC3C0AA931A93E981E695E695E69576
:102D56001E2FE4E5E19FF001DF01EA81F0E0EA0FD2
:102D6600FB1FE093860EF093870EE12F18812396C2
:102D76000895AA93E981E068AE2FDADFE981EA9344
:102D8600A981E0DFE064AE2FD3DF0CC0AA93E9810E
:102D9600EA93A981EEDFE091860EF091870EE8575F
:102DA600F14FE08122960895AA930E94AC203197B4
:102DB600E857F14FA881A083C0DF87C0BA93AA93D2
:102DC6000E947722A29AAA9AA59AAD98A49AA39A43
:102DD600A19AA998AAE0B0E00E949F21A99AEC8145
:102DE600FD81309721F1E681E3701E2FEC81FD8194
:102DF600E681E695E695E7700E2FEC81FD81E78189
:102E0600EF773E2FAC81BD810E9433220E941A1EAD
:102E1600AC81BD8112960E943322E093160AF0938C
:102E2600170AAC81BD8114960E9433220DC010E0B2
:102E360003E032E3E0E0F0E00E941A1EE0E0F0E09A
:102E4600E093160AF093170AE093180AF093190A0A
:102E5600A1E26EDFE12FE460AE2F6ADFE02FE061D2
:102E6600AE2F66DFE32FE068AE2F62DFA0E260DF01
:102E7600A1E022D0E1E0E093FD09E0E0E093FE0965
:102E8600E1E0E093030AE093040AE093050AEFEF1A
:102E9600E093060AE1E0E0930D0AEEE0FAE0FA9329
:102EA600EA93EFEFEA93A8E0B0E00E94931C0FD0FC
:102EB600E1E00E947E2286C0AA93E881E03011F00C
:102EC600ECE001C0E8E0AE2F33DF219608950E94C2
:102ED600772230E0E091FE09E03009F03FEFE0E0D4
:102EE600EA93A0E046DF08EF11E0F8010150104038
:102EF600309719F0A32F58DFF8CFE0E0EA93A0E06F
:102F0600ADD30E947E220C94951DAA931A930A9320
:102F1600AC81A43518F4AB81A03320F01981088167
:102F26000C94A11CEC81EA93AC8130DF1E2FEB815F
:102F3600E770A1E00E94B2210E2FEA81E03011F085
:102F4600102B03C0E02FE0951E23A12F2DDF198142
:102F560008810C94A11CAA931A93ED81EA93AD8182
:102F660015DF1E2FE981E73011F0E83039F4EB81E7
:102F7600EA93AA810E94311DEB8308C0E33021F455
:102F8600EB81E095EB8302C0E03021F4EA81E09525
:102F96001E2302C0E23029F4EA81AB81EA231E2B0C
:102FA6000EC0E13029F4EA81AB81EA231E2707C06F
:102FB600E43029F4EA81E095AB81EA2B1E23A12FA8
:102FC600F3DE188126960895AA9323970E94752208
:102FD600A889A43548F4AF85A03330F4AE85A03077
:102FE60019F0AD85A03009F4D5C1EE85E887A8892A
:102FF600BB27EE85F0E0AE0FBF1FA535E0E0BE07AC
:1030060020F0A889E4E5EA1BEE872D85AF85BB276E
:10301600ED85F0E0AE0FBF1FD19720F0AF85E0E35E
:10302600EA1BED87A985A63009F05BC0EC85E13087
:1030360009F4B0C1E33039F4E091180AF091190AA5
:10304600309709F4A7C10885ED85E695E695E695DE
:103056003E2FE22FE77019F4AD852A17E9F0A02F6D
:10306600BB27E32FF0E00E94D121AA85BB850E94F1
:10307600AF20269526952695532F5F935F5FE22F07
:10308600AF91EA1748F0102FE12F1150E03019F0F8
:103096000E94B420F9CFF1CFAE850A1711F1EE8563
:1030A600AA85BB85F0E00E94AF20ED85E77009F0A8
:1030B6003F5F20E02F932F5FE32FAF91AE1788F489
:1030C6001E851F931F5FE02FAF91AE1718F40E9465
:1030D600B420F7CFEE85AE81BF81F0E00E94AF202D
:1030E600E9CFEF85E7703E2FED85E03009F452C158
:1030F600EA85FB85EE83FF8310E00889303009F00E
:1031060066C0AD85A83008F45DC0E985E03011F0F1
:10311600E33009F402C0E73009F402C0E83009F4EC
:1031260002C0E93009F402C0EA3021F40A93A88902
:1031360020DE04C0E63011F40E94C1201F931F5FF9
:10314600EE85AF91AE17B8F5A985A63069F40E9451
:10315600C520FA93EA930E94AC203197E857F14FC5
:10316600A0810E94781D26C0E985E93011F450E05F
:103176000EC0EA3011F45FEF0AC00E94C5200E941B
:10318600CE205E2FE985E73011F0E83021F40E9469
:10319600D4205E2F06C0E33011F4509502C0E03013
:1031A60019F4A52FCADD06C00E94D820EFEFEA93D6
:1031B600AD85D1DEC3CFEF85E85FEF87ED85E850BB
:1031C600ED87DFC05D8520E0E0E0ED8781C0E32F7D
:1031D600AD85AE0FA93020F42D85E0E0ED8703C064
:1031E600E8E0E31B2E2F3A93A22F0E94261D4E2FB6
:1031F600E985E63029F50E94C1201F931F5FEE8501
:10320600AF91AE17E0F40E94AC203197E857F14F2A
:10321600E081E423AE2FE32F0E94BA210E94DE2034
:10322600E32FA42F0E94BA21E095E1215E2B0E9494
:10323600C520FA93EA93A52F0E94781DDECF2CC0F5
:10324600E93011F450E003C0EA30A9F45FEF0E94C0
:10325600D420AE2FE32F0E94B2215E2F1F931F5F53
:10326600EE85AF91AE1730F40E94D8204A93A0E0C5
:1032760072DEF4CF11C01F931F5FEE85AF91AE17BC
:1032860058F40E94E920AE2FE32F0E94B221EA9360
:103296004A93AD8560DEEFCFED85E03009F47AC064
:1032A600AD85A83028F4ED85E21B5E2FE0E003C073
:1032B600532FED85E850ED8710E0EF85E85FEF8747
:1032C600E8E0E31B2E2F0889EA85FB85EE83FF8362
:1032D600E52FF0E0EC55F84F4491E985E63029F505
:1032E6000E94C1201F931F5FEE85AF91AE17E0F4D9
:1032F6000E94AC203197E857F14FE081E423AE2FCE
:10330600E22F0E94B2210E94DE20E22FA42F0E940B
:10331600B221E095E1215E2B0E94C520FA93EA9343
:10332600A52F0E94781DDECF2CC0E93011F450E0A5
:1033360003C0EA30A9F45FEF0E94D420AE2FE22F3B
:103346000E94BA215E2F1F931F5FEE85AF91AE17C5
:1033560030F40E94D8204A93A0E0FDDDF4CF11C0DE
:103366001F931F5FEE85AF91AE1758F40E94E920B8
:10337600AE2FE22F0E94BA21EA934A93AD85EBDD88
:10338600EFCFE885AA85BB85F0E0EA0FFB1FEA8749
:10339600FB87AACE0E947C22619608950E94F620A1
:1033A60024F0E0E0F0E00C942F1DA881B981A4354B
:1033B600E0E0BE0724F0E3E5F0E00C942F1DE88181
:1033C600F9810C942F1D0E94F62024F0E0E0F0E035
:1033D6000C942F1DA881B981D09724F0EFE2F0E07C
:1033E6000C942F1DE881F9810C942F1DBA93AA9392
:1033F60023970E94FD208F01002E012A19F4E0E098
:10340600F0E05FC00E9404210F820E9404210E8218
:103416000E9404210886EB85A885EA1718F4E0E0E7
:10342600F0E04FC0F8010F5F1F4F5491A885BB27EE
:10343600EE27A50FBE1FEB85F0E0EA17FB0718F095
:10344600E0E0F0E03EC0EE81E695E695E6954E2F8B
:10345600EE81E77009F04F5FEF81E030A1F0A985BA
:10346600BA85EC93A885EB85EA1BF0E0DF01EF81D6
:10347600F0E00E94D121DF01E42FF0E00E94D1218B
:10348600E00FF11F1EC09801E52FF0E00E0F1F1F81
:10349600A885AF5FA887A150EB85AE1760F4F90148
:1034A6002F5F3F4FA491B0E0E42FF0E00E94D121BE
:1034B6000E0F1F1FEDCFF901E491A985BA85EC9394
:1034C600F8010E947C222C960895E0E0E093FF0923
:1034D600A091000ABB270E940921F0E0AE0FBF1F92
:1034E600E091040AF0E0AE0FBF1F6DDFE093000A23
:1034F6000895AA9321970E94FD20309709F459C098
:10350600AF81AA3009F451C0EF81EA93DE01179624
:103516006DDFAF01309719F40E947C22FFC1E09164
:10352600030AAE81EA0F3E2FA091FF09BB27F0E008
:10353600EA0FFB1F8F010535E0E01E0718F0032F89
:103546001127C3DFE091FF09EA93E091000AEA93AD
:10355600E885EA930E940921EA93E1E0EA935A9307
:103566004A93A7E031DDE091FF09AE81EA0FEA93C5
:10357600E091000AEA93E091030AEA930E94092186
:103586000E941021E091FF09EA93A091000A0E948F
:103596000921EA0FEA933A93E091040A0E94102166
:1035A600E4E5F0E0E017F10721F48FDF0E947C22CA
:1035B600B5C10093FF090E947C22B0C1AA93EA819B
:1035C600EA93AA814BD0A88194DF0C94761D0E94C1
:1035D6001A210E94222119F0A12F8BDFFACF188120
:1035E600ADC10E941A210E942A2119F0A12F81DF64
:1035F600FACF1881A3C1BA93AA931A930E942221E3
:1036060019F0A12F76DFFACF18810C94761DBA93A4
:10361600AA931A930E942A2119F0A12F6ADFFACFE2
:1036260018810C94761DAA93EA81EA93EA81EA93BB
:10363600E091060AAA81EA2319F0E091FD0902C089
:10364600E091FE09AE2F61DCE881EE0FE883E03001
:1036560011F4E1E0E883E8810C94761DAA93A98130
:10366600BB279CDEE093FF09A881BB27ACDEE09375
:10367600000A0C942F1DAA932B970E947522AC89E1
:10368600BB278CDEEC8BAA89BB2788DEEA8BAB894D
:10369600BB2799DEEB8BA989BB2795DEE98BEA89E7
:1036A600E093FF09E989E093000AE1E0E887E98908
:1036B600AB89EA1771F51C89AA891A1731F41A938E
:1036C600EC89EA93A1E0AFDFC8C0AA891A1730F4E3
:1036D600EA89E11B0E2F41E050E006C0AA89E12FDE
:1036E600EA1B0E2F4FEF5FEF3B89E0E0EE830E946F
:1036F600342138F41A933A933395AA8594DFEF83ED
:10370600F6CFEF81E887140FE02F0150E03061F724
:10371600A4C0EA89AC89EA1739F53B89A9893A1721
:1037260030F4E989E31B2E2FE1E0F0E006C0A98919
:10373600E32FEA1B2E2FEFEFFFEFED87FE871C89A5
:10374600E0E0EE830E94342130F41A9313950E9430
:103756003C21EF83F7CFEF81E887ED853E0FE22F1F
:103766002150E03061F779C0E0E0EE830E94342119
:1037760008F073C01C893B89E1E02E2F0E2FAA8921
:10378600BB27EC89F0E0AE1BBF0BAD0155232AF435
:103796000FEFFA010E94AE21AF01FA01EE0FFF1FF3
:1037A600EF87F88BA989BB27EB89F0E0AE1BBF0B2F
:1037B600AD87BE87AE85AA233AF42FEFED85FE8549
:1037C6000E94AE21ED87FE87ED85FE85EE0FFF1F79
:1037D600EB87FC871A933A93A1E025DFE887E0E0C0
:1037E600E987EA87AD85BE854A175B07BCF0100FEF
:1037F600EB85FC850E944021A985BA854A175B079F
:103806002CF4320FAF85B8890E9447211A930E9483
:103816003C21E887EA89E11751F718C0320FEF8596
:10382600F8890E944021ED85FE85A985BA85EA17AB
:10383600FB072CF4100FAB85BC850E9447211A9319
:103846000E943C21E887E989E31741F7EB89EF5F9E
:10385600EB8BE989EF5FE98B89CF0E947C22659625
:103866000895BA93AA930E947522EE81FF8113816F
:1038760001813281AE81BF812C91011718F4502F3E
:10388600012F152F231718F4522F232F352FE12F31
:10389600AE81BF811396EC93E32FAE81BF81129662
:1038A600EC93E02FAE81BF811196EC93AE81BF8180
:1038B6002C930E947C2232C0AA930E947722E09128
:1038C600050AE1503E2FDE011496CBDFED81E31BA6
:1038D6001E2FEC81E31B0E2FEF81EA93EF81EA9313
:1038E6001A93A985C8DE1A93EF81EA931A93A02F3B
:1038F600C2DEED81EA930A93E32FA985EA0FEA93E4
:10390600A02FB9DEEF81EA93ED81EA93E985EA9388
:10391600E32FA985AE0FAFDE0E947E22289608957A
:10392600BA93AA93B981A881109631F0FC81EB81F4
:103936006A8161931197E9F7EB81FC8125960895D9
:10394600BA93AA93E991F991A991B991CD016D9193
:103956006623E9F7119761916D936623E1F7FC0100
:103966000895BA93AA93E991F991A991B991CD01D4
:1039760061916D936623E1F7FC010895BA93AA93CA
:10398600AA81BB81CD01E881F9817191772311F478
:10399600FC0109C06D916717C1F30196DC0166232E
:1039A60091F7EE27FF270C94951DBA93AA93B98138
:1039B600A881EC918A2FAE2F0E94A01DA82FEE237E
:1039C60011F01196F6CFE894EC91ED3211F468946B
:1039D60002C0EB3209F4119666277727EC918A2FFD
:1039E600AE2F0E94971DA82FEE2379F0FB01660FDC
:1039F600771F660F771F6E0F7F1F660F771FED917C
:103A0600FF27E0536E0F7F1FE9CFFB011EF4E09501
:103A1600F095319622960895AA93E881E295EF7083
:103A2600AE2FAA0FAA0FEA0FEE0FA991AF70EA0FF9
:103A36000895AA93A991EE27AA5012F0E05FFCCF51
:103A4600A65FEA0F0895AA93E881F0E0EC55F84FD7
:103A5600A491E9810E94B22122960895AA931A930D
:103A6600E981E73011F0EA3019F41091FD0909C037
:103A7600E93019F41091FE0904C0E830A1F4109160
:103A86000D0AE091FE09E03049F0103019F0EFEF31
:103A9600188129C0EA81E095188125C0103019F4F3
:103AA600E0E0188120C0EA8118811DC0BA93AA936C
:103AB600EA81E13021F4E881F981E49114C0E23031
:103AC60029F4A881B9810E9443220DC0E33041F454
:103AD600A881B981E091160AF091170A099503C0E9
:103AE600A881B981EC9123960895AA93EB81E030E1
:103AF60029F4E881A981BA81EC9314C0E23031F44B
:103B0600E881A981BA810E9457220CC0E33051F4A2
:103B1600E981FA81FA93EA93AA81E091180AF09171
:103B2600190A099524960895AA93E1E0F991F033CC
:103B360010F0FA3308F0EE270895AA93E1E0F99120
:103B4600F03229F0F93010F0FE3008F0EE27089533
:103B5600C39A8DE08A95F1F7E0E0B299E1E0089525
:103B6600A8810E944D09C59A8BE18A95F1F70895BF
:103B7600AA93C598E981E062AE2F0C944D09A881FD
:103B86000E944D09A8810E944D09A8810E944D09F5
:103B9600A8810C944D09C59A8BE18A95F1F7089591
:103BA600AA93C598E3E0EA93A3E00E948009F3CFC5
:103BB600E7E0EA93AEE70E948009A2EE0C947B0947
:103BC600F0E0ED93FC930C946909ECE8F0E0E093E7
:103BD600010AF093020A08951A930A9300E010E08E
:103BE6000895E0E0EA93EA93E4E5EA9308950E94F3
:103BF6000B12EAE1F7E0E093010AF093020A01E012
:103C060010E00895E02FEE0FEE0FEE0FE55EEA935B
:103C1600E7E2EA93AAE2A09FF001A19FF00DE0502F
:103C2600F040DF010E944322AE2F0C94E11AE0938C
:103C3600010AF093020A0895E7EDFBE0FA93EA938E
:103C4600E8EDFBE0FA93EA93A9EDBBE00C9432169B
:103C5600E0E7F2E0ECCFF0E0EE0FFF1FAE0FBF1F84
:103C66000E943322DF010C94F41AF0E0EE0FFF1FDE
:103C7600AE0FBF1F0E943322DF010C940A1BFE0108
:103C86003296FA93EA93E0E0EA930895F801DE01AA
:103C96001296EA0FFB1F0F010895BA93AA93E881C3
:103CA600F9810895E82DE750EA93AA92AEE30C94C1
:103CB600E11A0E94772200E010E008950E94980B16
:103CC600F5013096FA93EA9308950E94020BF501E6
:103CD6003896FA93EA9308950E94020BF5017096BE
:103CE600FA93EA9308950E94020BF5017896FA93E7
:103CF600EA9308952F5F3F4FF50138965F0125300F
:103D0600E0E03E07089504E010E021E030E0EFE057
:103D1600F0E05F010895D8010E94460B00E010E034
:103D26000895FE013496FA93EA93E0E0EA93089543
:103D3600F801DE011496EA0FFB1F0F010895E82D26
:103D4600E750EA93AA92A0E20C94E11A9498AAE2A8
:103D5600B0E0E0E00E945722A2E5B0E0089597980F
:103D6600A4E5B0E0E0E00E945722ACE7B0E0089599
:103D7600AF98AEE7B0E0E0E00E945722A6EAB0E0D6
:103D86000895DF98A8EAB0E0E0E00E945722A0ED8F
:103D9600B0E00895DA98A2EDB0E0E0E00E94572284
:103DA600AAEFB0E008950A921A92FA926A937A9369
:103DB6008A939A93AA93BA93EA93FA93EFB7EA93FC
:103DC6000895ED91FD913196FE93EE930895E99154
:103DD600EFBFF991E991B991A99199918991799159
:103DE6006991F990199009900895A091D20BB0911C
:103DF600D30B8091D40B9091D50B0895EC91D00103
:103E0600EC93EE81FF813196EE83FF830895FA935A
:103E1600EA93E0E0EA930895FA93EA93E2E3F0E0A6
:103E2600FA93EA93A5E0B0E00C94D70CAAE0B0E0D0
:103E36000C94931CACE0BCE0A00FB11F0895DE010A
:103E4600A455BF4F0D90BC91A02DEC910895FE0195
:103E56003296FA93EA930895FE013C96FA93EA9312
:103E66000895E885F985DE011E960895E885F985A9
:103E76003196E887F9870895FA01ACE3B0E00E942D
:103E8600DF21DB010E944F22089501E010E00C942F
:103E96002A0A0E94980BECE2F7E0C9CEE5E0EA9325
:103EA600E6E1EA9308950E944322AE2F0E94E11AAA
:103EB600CFCEE9E1EA93E6E1EA93F801A4ECBBE0B0
:103EC600EE0FFF1FAE0FBF1F0E943322DF010C94BF
:103ED600F41AAAE2A09FF001A19FF00DE050F04075
:103EE6000895BF01DF010E9443220E94CC21DB011D
:103EF6000E9457220895ECE2F7E099CE0E94FE1A3E
:103F060064CEA0E09499A1E0E0E00E94C721089564
:103F1600A0E09799A1E0E0E00E94C7210895A0E003
:103F2600AF99A1E0E0E00E94C7210895A0E0DF99E3
:103F3600A1E0E0E00E94C7210895A0E0DA99A1E09F
:103F4600E0E00E94C721089500E010E00C942A0AE0
:103F5600AC81BD81EAE20E94D921EF5FFF4F08954F
:103F6600DF010E944322E05DAE2F0C94E11AE9E1E5
:103F7600EA93E6E1EA93F801A4E9BBE0EE0FFF1F3E
:103F8600AE0FBF1F0E943322DF010C94F41AE00F1C
:103F9600F11F7E2F8F2FDF010E9443220E94CC212A
:103FA600A72FB82F0E945722A6CFE00FF11FD8CF18
:103FB600AC81BD81EAE20E94D9210895E9E1EA9344
:103FC600E6E1EA93F801AAE1BAE0EE0FFF1FAE0FB1
:103FD600BF1F0E943322DF010C94F41AE05DD0016A
:103FE6000E94572208950E94980B32CEE9E1EA9387
:103FF600E6E1EA93F801AAE2BAE0EE0FFF1FAE0F80
:10400600BF1F0E943322DF010C94F41AE9E1EA9300
:10401600E6E1EA93F801AAE6BAE0EE0FFF1FAE0F5B
:10402600BF1F0E943322DF010C94F41AEFE0EA93DB
:10403600E6E1EA93F801A4E8BAE0EE0FFF1FAE0F3F
:10404600BF1F0E943322DF010C94F41AE9E1EA93C0
:10405600E6E1EA93F801ACE1BBE0EE0FFF1FAE0F1D
:10406600BF1F0E943322DF010C94F41AE9E1EA93A0
:10407600E6E1EA93F801A4EABAE0EE0FFF1FAE0FFD
:10408600BF1F0E943322DF010C94F41A21E030E0B6
:104096000C942A0A6A92DA92CA92A091D60B0C94D0
:1040A6007216E091D70BEA93E091D80BEA93A091B0
:1040B600D90B0C944A16E0E0E093D20BE093D30BB5
:1040C600E093D40BE093D50B0895AAE2A29FF001EA
:1040D600A39FF00DE85DFF4FDF010E943F22089588
:1040E6000E945321A0ED0C9487210E9487210C94F5
:1040F60062210E945321A1ED0E948721A1E00C9428
:104106006C21AE2F0E940F1DA881B981EC930895F2
:10411600A1E00E946C21AE2F0C940F1DAA81BB81D9
:10412600EC93A0E00C946C210E948721A8810E9448
:104136001C1DAE2F08950E948721A9810E941C1D77
:10414600AE2F08950E948721AA810E941C1DAE2FC2
:104156000895A6E8BEE035CEEA0FFB1FEE83FF8387
:104166000895EC85EA93EF81F8853196EF83F88719
:104176003197FA93EA93A0E00C94781D0A93A889E4
:104186000C94A516EC85EA93EF81F8853196EF83BA
:10419600F8873197089566277727DF01CB010C94BE
:1041A600591D5A93AA850C94311D0A930395E889E3
:1041B600EA935A9308955E2FEC85EA93AF81B8850A
:1041C600882799270E94591D1E2E08950A93039544
:1041D600E889EA93EE85EA93E985FA853196E987D7
:1041E600FA873197D8CFBA93AA93A881B9810E944A
:1041F6006C2208950E947522E091010AF091020A4C
:104206000895F8010F5F1F4F04900895E091010A89
:10421600F091020A3196E4910895EA93E0E0EA9378
:10422600E0E0F0E0FA93EA93A9E00C94E717BA937A
:10423600AA931A93EC81EA93AC810C94311BA98161
:10424600BA81ED91A983BA831E2FE0300895E981E2
:10425600FA813196E983FA833197E4911E2FE03093
:104266000895AE81AF5FAE83A150E091050AAE1707
:1042760008953A93AA850C94161BA985BA85EA0F68
:10428600FB1FE987FA870895E985FA85EA1BFB0B88
:10429600E987FA87089590989198889A899815C021
:1042A60089988898EE270000819B0895809B089541
:1042B60004D0899A02D0889AE1E06DE007C0899A15
:1042C600889A03D08898F9DF89986BE16A95F1F7A7
:1042D600089578E08898F1DF809BFECFEEDF889422
:1042E60081990894889AF1DFEE1F7A9599F77A2FCB
:1042F600772311F4899801C0899ADFDF8898E5DF72
:10430600889ADBDF8998D9CF78E0AA0F10F48998CC
:1043160001C0899ADADF8898D0DF809BFECFCDDF97
:10432600889A7A9591F78998C8DF8898CEDFE1E078
:104336008199EE27889AC1CF109639F080ED97E0E3
:104346000197F1F7A8951197C9F70895AE1BBF0B12
:10435600860B970B0895F195E195F0400895EE23AD
:104366000E2EEA2F19F0EE0F0A94E9F70895EE23C0
:104376000E2EEA2F19F0E6950A94E9F708956F2FA5
:10438600660F660B762F0895EA17E1E009F0EE272F
:104396000895EE23E1E009F0EE270895FA9FF02D47
:1043A600EB9FF00DEA9FE02DF10D08956E2F6A9FA9
:1043B600F0016B9FF00D089545D0F0DF0EF4CBDFD2
:1043C60008950024112490E1AA0FBB1F001C111CA4
:1043D6000E1A1F0A18F40E0E1F1E01C0A1609A9530
:1043E60099F7FD01D00108952DD0EBDF0EF4B3DF70
:1043F60008953F934F935F93002411244427552734
:1044060030E2AA0FBB1F881F991F001C111C441FF6
:10441600551F0E1A1F0A460B570B28F40E0E1F1EA9
:10442600461F571F01C0A1603A9559F7FD01BC010F
:10443600D001CA015F914F913F910895DADFFD01E6
:10444600BC010895E894F7FF02C085DF6894B7FFC2
:1044560006C0A095B095119600F8039400FA089549
:10446600ED91FC9111970895BB27EA0FFB1F02906F
:104476000A921197E1F70895119602D0FE2F11972F
:10448600E199FECFFF93FFB7F894AEBBBFBBE09AAE
:10449600EDB3FFBFFF91089507D01196EF93EF2F6D
:1044A60003D0EF9111970895E19B02C0A895FCCF28
:1044B6009FB7F894AEBBBFBBE09A8DB3E81719F06F
:1044C600EDBBE29AE19A9FBF089530976040704035
:1044D600089500240A160B060895AE17BF0786072F
:1044E600970708955A934A933A932A931A930A93ED
:1044F60008955D814C813B812A8119810881089547
:00000001FF
